:1000000003308A00052B00000A108A100A118207AB
:1000100028340C34013406340C064539F237721D8D
:100020000A192032E9332036E936693A00000C0615
:10003000D232F33A6C3A3A05A53A000031308400E6
:1000400083130008031932280130F800F701F70B79
:100050002728F80B26284A30F700F70B2D283028E0
:10006000800B24280800380EF039F7000F30060501
:1000700077048600000006143D28061008000608D4
:10008000F700060E0F39F8000800831606108610D8
:100090000611831286100F3083160605F03886008D
:1000A000831206150000061400003F207808B800EF
:1000B00006100000061400003F207808B700061064
:1000C0000F308316060586008312380EF700F030D5
:1000D000F70577083704F8007808B700B71B4B28F6
:1000E000351C861035188614000006110000061015
:1000F000360EB7000F30B7053708B8003320360882
:100100000F39B700B800332008000F3083160605FA
:10011000860006108610061183128610061106103E
:100120000F30B1001E200130A6002608033C031C3E
:10013000A1280330B80033200530B1001E20A60AE4
:1001400095280230B80033200530B1001E20A601EA
:100150002608033C031CB52826080420A700B50187
:100160002708B6004520A60AA8288A110A121F2BC4
:10017000A6080319C028B5010F30B6004520C428D1
:10018000B5010C30B60045208A110A12272BF70161
:10019000F8012C0803102D18F707F70CF80CAD1810
:1001A000F707F70CF80C2D19F707F70CF80CAD1939
:1001B000F707F70CF80C2D1AF707F70CF80CAD1A27
:1001C000F707F70CF80C2D1BF707F70CF80CAD1B15
:1001D000F707F70CF80C0800A901AA012A08033C4C
:1001E000031C26290130AC002A08F8000319FC285A
:1001F0000310AC0DF80BF8282C088800080870399B
:10020000F700770EA9000F30A9052908043C031D4B
:100210000B2903300C292908A900A908031924294E
:100220000330AC002A08AD00C72078082907AB00CE
:100230002B080B3C031D1E2900301F292B08AB0087
:1002400088012B08F8002829AA0AEE28FF30F800B8
:100250000800320B2C292F294030B3003029B3017C
:1002600001303102B30733088038B400B5013408D7
:10027000B600452008003008073A031949290B3A0F
:1002800003194E29063A03195629023A03195C2923
:1002900061290130B100B20029216629B501013080
:1002A000B60045200230B1001E2066290130B100A1
:1002B0000230B20029216629B5011030B600452070
:1002C00066290130B5003008B60045200800310825
:1002D000F801300203186F293008F7007B29F70175
:1002E0000830B200B00DF70D310877020318F7009F
:1002F000F80DB20B72290800EC207808A800280F2E
:100300008229752A2808093C031C752A2708FA0047
:100310002608840083137A1883170008093C031CFD
:10032000A8292708FA0026088400831327188317B2
:100330000008AC000A30AD00C7207808800026080D
:100340008400831327188317280800078000052AD4
:100350002608840083132718831780010C300317A5
:100360008D0000308F0003130B08A9008B13831638
:1003700003178C170C140000000083120C087F393F
:100380000319FB290313AA0003170D080313AB007D
:1003900003170F080313AC002A08B0003B212B08F9
:1003A00003178D0003132C0803178F0083168C1777
:1003B0000C140000000083120C0D0E0D7F39031980
:1003C000FB290313AA0003170D080313AB0003173F
:1003D0000F080313AC002A08B0003B212B080317B9
:1003E0008D0003132C0803178F008D0A03198F0A41
:1003F0000313B72903170313A91B8B170430A90094
:10040000FA30B1001E20A90B002A2708FA0026089E
:10041000840083137A1883170008A9000C30B000F9
:100420003B210C30B0003B212908AA001830AB005A
:1004300020302B1E3030AC002A08F700AA1F282AD3
:10044000F709F70A7708AA002D30AC00AB172B1478
:100450002A08B0006430B10067217708AA00303064
:100460007807AD002A08B0000A30B10067213030AB
:100470007707AF0030307807AE002C08F700303037
:100480002D020319472AAB14AB1B2B155B2A2C0832
:10049000AD002030AC0030302E020319532A2B144B
:1004A000AB1BAB145B2A031D2B14031D5B2A2D0809
:1004B000AE002030AD002B19622AAB18652A2B182C
:1004C000682A6B2A2C08B0003B212D08B0003B2184
:1004D0002E08B0003B212F08B0003B210430A900BA
:1004E000FA30B1001E20A90B702A8A110A12332B90
:1004F0000B08A8008B13831603178C170C1400002D
:1005000000000318AA2A83120C087F390313A900DC
:1005100003170D080313AA0003170F080313AB00FA
:100520002908B0003B212A0803178D0003132B086C
:1005300003178F0083168C170C1400000000831221
:100540000313A70BA42AA72A83160317AA2AC92ACA
:100550008316031783120C0D0E0D7F390313A900A8
:1005600003170D080313AA0003170F080313AB00AA
:100570002908B0003B212A0803178D0003132B081C
:1005800003178F008D0A03198F0A03100313A70B9B
:100590007B2AA81B8B178A110A12512B780827086F
:1005A000B0006430B10067217708A70078083030C8
:1005B000031DE12AA81CE82AA819E82A281A2030D5
:1005C000E42AA81128122814F8077808B0003B2163
:1005D0002708B0000A30B10067217708A700780823
:1005E0003030031DF92AA819FD2A281CFD2A281AD3
:1005F0002030F8077808B0003B213030A7072708E3
:10060000B0003B218A110A12562B831603170908E2
:10061000C039890003131F129F120030031788008E
:10062000831287018801890183131F3083050030FD
:10063000831603138600F030880083128528A101F9
:10064000A201A4012130A3000130A600B828EC20AB
:100650007808A5002508093C031C332B2408A700B3
:100660002308A6007C2925080A3C031D402B0C30DA
:10067000B0003B210C30B0003B21A4012230A3008C
:1006800025080C3C031D682B22082107A600173003
:1006900003178D0000308F0003100A300313A700EA
:1006A000782A2608A7001B30A800CE2A0830A6000A
:1006B000FA30B1001E20A60B582B0C30B0003B21A5
:1006C0000C30B0003B21A101A201A4012130A30004
:0406D000242B630074
:04400E00F12CFF3F53
:00000001FF
;PIC16F887
;CRC=DA78  CREATED="04-Dec-23 11:22"
