:1000000000308A0019280000233084008313000880
:10001000031918280130F800F701F70B0D28F80B29
:100020000C284A30F700F70B13281628800B0A28F3
:100030000800831603170908C039890003131F122B
:100040009F120030031788008312870188018901FD
:1000500083131F3083050030831603138700043099
:100060008312870087100C309D000030F80006389E
:100070009200FF308316920001308312A2002C30D0
:10008000A1002208F9002108F800F90CF80CF90C7D
:10009000F80CF90C78089B00F90C790C3039F70052
:1000A0001D08CF3977049D00FF3083168500831229
:1000B000051C6428FF3083168500831205185A2812
:1000C00007080C3AA3008700FF30831685008312CF
:1000D000851C8E282208033C031C7828031D7428E5
:1000E0002108E73C031C78286430A1070318A20A02
:1000F0002208F9002108F800F90CF80CF90CF80CAA
:10010000F90C78089B00F90C790C3039F7001D08C0
:10011000CF3977049D009630A3000420FF3083166A
:1001200085008312051DB728A208031D9B282108FE
:10013000643C0318A1286430A1020030031C013084
:10014000A2022208F9002108F800F90CF80CF90CB9
:10015000F80CF90C78089B00F90C790C3039F70091
:100160001D08CF3977049D009630A3000420542841
:0201700063002A
:04400E00F12CFF3F53
:00000001FF
;PIC16F887
;CRC=6B43  CREATED="18-Dec-23 01:20"
