:1000000000308A00F92800000A108A100A118207BD
:1000100028340C3401340634B219501BB024B619FC
:10002000C406000023308400831300080319262827
:100030000130F800F701F70B1B28F80B1A284A309B
:10004000F700F70B21282428800B18280800270E1A
:10005000F039F7000F30060577048600000006141B
:100060003128061008000608F700060E0F39F800C0
:1000700008000F308316060586000610861006114C
:1000800083128610061106100F30A30012200130D3
:10009000A2002208033C031C55280330A700272098
:1000A0000530A3001220A20A49280230A700272009
:1000B0000530A3001220A2012208033C031CA7283C
:1000C00022080420A300A4012308A500831606101B
:1000D00086100611831286100F3083160605F0383D
:1000E00086008312061500000614000033207808ED
:1000F000A700061000000614000033207808A600B0
:1001000006100F308316060586008312270EF700AF
:10011000F030F70577082604F8007808A600A61B3B
:100120006C28241C86102418861400000611000078
:100130000610250EA6000F30A6052608A7002720CA
:1001400025080F39A600A7002720A20A5C288A11DB
:100150000A1218290B08A2008B13831603178C1799
:100160000C140000000083120C087F390319F328D7
:100170000313A30003170D080313A40003170F08AC
:100180000313A50023080C1EC32899002408031795
:100190008D000313250803178F0083168C170C148A
:1001A0000000000083120C0D0E0D7F390319F32897
:1001B0000313A30003170D080313A40003170F086C
:1001C0000313A50023080C1EE32899002408031735
:1001D0008D000313250803178F008D0A03198F0A5A
:1001E0000313AD2803170313A21B8B178A110A12DE
:1001F0002B29831603178711193003139900A63092
:100200009800903083129800831603170908C039AC
:10021000890003131F129F120030031788008312F6
:1002200087018801890183131F308305031339284F
:10023000831603178711193003139900A63098000D
:10024000903083129800A1010C3003178D0000300C
:100250008F000313AA280430A200FA30A300122052
:08026000A20B2D2924296300E3
:04400E00F12CFF3F53
:00000001FF
;PIC16F887
;CRC=2DDA  CREATED="23-Dec-23 15:27"
