:1000000002308A00A72A00000A108A100A1182070B
:1000100028340C34013406340C293A10A539000078
:100020008C25701DA53A2010A025691DA53A8A25AA
:10003000641DA53A001C3A3084008313000803199C
:100040002F280130F800F701F70B2428F80B23289C
:100050004A30F700F70B2A282D28800B21280800AA
:10006000410EF039F7000F300605770486000000D6
:1000700006143A28061008000608F700060E0F3985
:10008000F8000800831606108610061183128610E9
:100090000F3083160605F03886008312061500001F
:1000A000061400003C207808C10006100000061469
:1000B00000003C207808C00006100F3083160605AB
:1000C00086008312410EF700F030F70577084004F0
:1000D000F8007808C000C01B48283E1C86103E1857
:1000E000861400000611000006103F0EC0000F30FD
:1000F000C0054008C10030203F080F39C000C100D2
:10010000302008000F308316060586000610861082
:10011000061183128610061106100F30BA001B203C
:100120000130B4003408033C031C9E280330C10096
:1001300030200530BA001B20B40A92280230C100DA
:1001400030200530BA001B20B4013408033C031CE6
:10015000B22834080420B500BE013508BF00422093
:10016000B40AA5288A110A12CB2A3B0BB828BB284F
:100170004030BC00BC28BC0101303A02BC073C083E
:100180008038BD00BE013D08BF004220080039088C
:10019000073A0319D5280B3A0319DA28063A031946
:1001A000E228023A0319E828ED280130BA00BB0022
:1001B000B520F228BE010130BF0042200230BA0053
:1001C0001B20F2280130BA000230BB00B520F22813
:1001D000BE011030BF004220F2280130BE003908B5
:1001E000BF00422008000B08B5008B1383160317CD
:1001F0008C170C14000000000318252983120C082A
:100200007F390313B60003170D080313B700031754
:100210000F080313B8003608B900C72037080317C2
:100220008D000313380803178F0083168C170C14E6
:100230000000000083120313B40B1F292229831628
:100240000317252944298316031783120C0D0E0D5D
:100250007F390313B60003170D080313B700031704
:100260000F080313B8003608B900C7203708031772
:100270008D000313380803178F008D0A03198F0AA6
:1002800003100313B40BF628B51B8B170800800866
:1002900003195C29B5010408B4003510831B35141B
:1002A0000008B900C7203408840083133518831769
:1002B000840A0319850A47298A110A12FC2AB901FE
:1002C000B7010A30B800B60134083504031D6B29A4
:1002D0000030F8005C2A3908B90A34078400831317
:1002E000351883170008BA003A082D3C031D8429ED
:1002F0000130B7003908B90A340784008313351870
:1003000083170008BA0091293A082B3C031D912954
:100310003908B90A34078400831335188317000895
:10032000BA003A082F3C0318522A3A08393C031CF9
:10033000522A3A08303C031DBD293908340784008D
:100340008313351883170008783C0319B12939083D
:10035000340784008313351883170008583C031DA5
:10036000BD291030B800B90A3908B90A3407840029
:100370008313351883170008BA0038080A3C031D98
:10038000002A3A082F3C0318FF293A08393C031C7D
:10039000FF290A30BB003608BC00F701F8013B0812
:1003A00003103C18F707F70CF80CBC18F707F70C0C
:1003B000F80C3C19F707F70CF80CBC19F707F70C09
:1003C000F80C3C1AF707F70CF80CBC1AF707F70CF7
:1003D000F80C3C1BF707F70CF80CBC1BF707F70CE5
:1003E000F80C30303A027807B6003908B90A3407F9
:1003F00084008313351883170008BA00C129522AD4
:100400003808103C031D522A3A08603C03180F2A92
:100410003A087A3C031C0F2A3A08DF39102A3A08B6
:10042000BA003A082F3C0318192A3A08393C031835
:10043000212A3A08403C0318522A3A08463C031C39
:10044000522A3A082F3C0318322A3A08393C031C36
:10045000322A360EBB00F030BB0530303A023B0783
:10046000B6003B2A360EBB00F030BB0541303A02E5
:100470000A3E3B07B6003908B90A340784008313E3
:10048000351883170008BA003A08603C03184F2A51
:100490003A087A3C031C4F2A3A08DF39502A3A08B6
:1004A000BA00112A370B5A2A38080A3C031D5A2A67
:1004B000B609B60A3608F80008003708F80136020F
:1004C0000318652A3608F700712AF7010830B800CA
:1004D000B60DF70D370877020318F700F80DB80BC3
:1004E000682A080078083408B6006430B7005D2236
:1004F0007708B40078083030031D852AB51C8C2A93
:10050000B5198C2A351A2030882AB51135123514C0
:10051000F8077808B900C7203408B6000A30B700D9
:100520005D227708B40078083030031D9D2AB51984
:10053000A12A351CA12A351A2030F8077808B900FD
:10054000C7203030B4073408B900C720080083162C
:1005500003178711193003139900A63098009030C3
:1005600083129800A601A701A801831603170908A2
:10057000C039890003131F129F120030031788002F
:10058000831287018801890183131F3083050313B8
:10059000A001A101822883160317871119300313C4
:1005A0009900A6309800903083129800A901AA0102
:1005B000AB01AC01AD01AE01AF01B001B101B201BF
:1005C0002930840083138403840A8C1EE52A1A08C8
:1005D00080000D300002031DE42A80010C30031757
:1005E0008D0000308F00031004300313B400F3209B
:1005F0002930840083134729B3013308083C031CC6
:10060000202B29303307840083130008503C031942
:10061000192B29303307840083130008493C031940
:10062000192B29303307840083130008443C031D31
:100630001E2B29303307840083138001B30AFD2A5F
:10064000B5012930B4005F217808A600B5012C302F
:10065000B4005F217808A700B5012F30B4005F21F6
:100660007808A800103003178D0000308F000310A9
:1006700004300313B400F3202608B4001B30B50087
:100680007222133003178D0000308F0003100630E4
:100690000313B400F3202708B4001B30B500722206
:1006A000173003178D0000308F0003100430031340
:1006B000B400F3202808B4001B30B5007222E02AF1
:0206C0006300D5
:04400E00F12CFF3F53
:00000001FF
;PIC16F887
;CRC=1872  CREATED="23-Dec-23 15:25"
