:1000000002308A00752A0000FF00030E8301A10060
:100010000A08A0008A010408A2007708A300780853
:10002000A4007908A5007A08A600831383128C30F7
:100030008400001C1D280C182E2822088400230888
:10004000F7002408F8002508F9002608FA0020081F
:100050008A00210E8300FF0E7F0E09008A110A120A
:10006000062A0A108A100A11820728340C34013437
:1000700006340C064118BA12EC3A8A20311D253696
:1000800075008316061086100611831286100F3035
:1000900083160605F0388600831206150000061444
:1000A00000000608F700060E0F39F8007808D100A6
:1000B00006100000061400000608F700060E0F39AF
:1000C000F8007808D00006100F3083160605860069
:1000D0008312510EF700F030F70577085004F8004E
:1000E0007808D000D01B47284E1C86104E18861466
:1000F00000000611000006104F0ED0000F30D00592
:100100005008D100510EF039F7000F300605770482
:100110008600000006148C2806104F080F39D00006
:100120005008D100510EF039F7000F300605770462
:100130008600000006149C28061008004A3084003F
:10014000831300080319B2280130F800F701F70BF8
:10015000A728F80BA6284A30F700F70BAD28B028DF
:10016000800BA42808004908073A0319C1280B3A54
:100170000319D628063A0319DE28023A0319F4288F
:10018000F9280130CA00CB004B0BC728CA284030E1
:10019000CC00CB28CC0101304A02CC074C08803877
:1001A000CD00CE014D08CF004120FE28CE01013008
:1001B000CF0041200230CA009E20FE280130CA0034
:1001C0000230CB004B0BE528E8284030CC00E92872
:1001D000CC0101304A02CC074C088038CD00CE015A
:1001E0004D08CF004120FE28CE011030CF00412025
:1001F000FE280130CE004908CF00412008000B083E
:10020000C1008B13831603178C170C140000000019
:100210000318312983120C087F390313C200031716
:100220000D080313C30003170F080313C40042088B
:10023000C900B320430803178D00031344080317B4
:100240008F0083168C170C14000000008312031318
:10025000C00B2B292E298316031731295029831609
:10026000031783120C0D0E0D7F390313C200031701
:100270000D080313C30003170F080313C40042083B
:10028000C900B320430803178D0003134408031764
:100290008F008D0A03198F0A03100313C00B022964
:1002A000C11B8B170800C8010408C7004810831B36
:1002B0004814410EF038C300C307E23EC400323E8A
:1002C000C60041080F39C407C407C607E93EC50088
:1002D000C507C507400E0F39C507C607C50DC60DB2
:1002E000C609C60D40080F39C607C30D0730C20046
:1002F0000A30C607C503031C7929C507C403031CBC
:100300007D29C407C303031C8129C307C203031C3F
:10031000852942308400831307304705471384073B
:1003200046300402031947170008F700031DA029EF
:10033000471BA029471AB229C719A0292030A32991
:10034000C71547123030F707C1010408C00041103B
:10035000831B41147708C900B3204008840083132D
:1003600041188317840A471F902908000030F800BD
:100370001F08C33978049F000230F700F70BBE292D
:10038000C12900009F149F18C32983161E088312D9
:10039000A8001E08A9000430F8001F08C33978041B
:1003A0009F000230F700F70BD329D62900009F14D5
:1003B0009F18D82983161E088312AA001E08AB00B6
:1003C000393003178D0000308F0003100530031300
:1003D000C000FF20103084002908C1002808C00098
:1003E00053213D3003178D0000308F00031004307F
:1003F0000313C000FF20103084002B08C1002A081E
:10040000C0005321C830CA009E2008000C108E0185
:1004100006308F008E01AC0A2C08053C031D122A01
:10042000B621AC010C108A110A121D280F30831658
:100430000605860006108610061183128610061126
:100440000610A7018B1BA7178B130F30CA009E2025
:10045000A71B8B170130AD002D08033C031C482A55
:100460000330D100510EF039F7000F300605770444
:100470008600000006143C2A0610A7018B1BA71754
:100480008B130530CA009E20A71B8B17AD0A2C2AA0
:100490000230D100510EF039F7000F300605770415
:1004A000860000000614542A0610A7018B1BA7170C
:1004B0008B130530CA009E20A71B8B17AD012D089A
:1004C000033C031C722A2D083120AE00A7018B1BB0
:1004D000A7178B13CE012E08CF004120A71B8B1727
:1004E000AD0A5F2A8A110A128A2AAC018316031701
:1004F0000908C039890003131F129F120030031727
:100500008800831287018801890183131F308305C6
:100510000313162A831603170908C0398900031329
:100520001F129F12033003178800831203131F1337
:100530009F1783169F1783121F14C0308B048316D6
:100540000C1483120C10353090008E0106308F0091
:080550008E01B621AA2A630006
:04400E00F12CFF3F53
:00000001FF
;PIC16F887
;CRC=7399  CREATED="10-Dec-23 12:48"
